{
  "contractName": "Betting",
  "abi": [
    {
      "constant": true,
      "inputs": [],
      "name": "gamblerB",
      "outputs": [
        {
          "name": "",
          "type": "address"
        }
      ],
      "payable": false,
      "stateMutability": "view",
      "type": "function"
    },
    {
      "constant": true,
      "inputs": [],
      "name": "gamblerA",
      "outputs": [
        {
          "name": "",
          "type": "address"
        }
      ],
      "payable": false,
      "stateMutability": "view",
      "type": "function"
    },
    {
      "constant": true,
      "inputs": [],
      "name": "oracle",
      "outputs": [
        {
          "name": "",
          "type": "address"
        }
      ],
      "payable": false,
      "stateMutability": "view",
      "type": "function"
    },
    {
      "constant": true,
      "inputs": [],
      "name": "owner",
      "outputs": [
        {
          "name": "",
          "type": "address"
        }
      ],
      "payable": false,
      "stateMutability": "view",
      "type": "function"
    },
    {
      "constant": true,
      "inputs": [
        {
          "name": "",
          "type": "uint256"
        }
      ],
      "name": "outcomes",
      "outputs": [
        {
          "name": "",
          "type": "uint256"
        }
      ],
      "payable": false,
      "stateMutability": "view",
      "type": "function"
    },
    {
      "inputs": [
        {
          "name": "_outcomes",
          "type": "uint256[]"
        }
      ],
      "payable": false,
      "stateMutability": "nonpayable",
      "type": "constructor"
    },
    {
      "payable": true,
      "stateMutability": "payable",
      "type": "fallback"
    },
    {
      "anonymous": false,
      "inputs": [
        {
          "indexed": false,
          "name": "gambler",
          "type": "address"
        }
      ],
      "name": "BetMade",
      "type": "event"
    },
    {
      "anonymous": false,
      "inputs": [],
      "name": "BetClosed",
      "type": "event"
    },
    {
      "constant": false,
      "inputs": [
        {
          "name": "_oracle",
          "type": "address"
        }
      ],
      "name": "chooseOracle",
      "outputs": [
        {
          "name": "",
          "type": "address"
        }
      ],
      "payable": false,
      "stateMutability": "nonpayable",
      "type": "function"
    },
    {
      "constant": false,
      "inputs": [
        {
          "name": "_outcome",
          "type": "uint256"
        }
      ],
      "name": "makeBet",
      "outputs": [
        {
          "name": "",
          "type": "bool"
        }
      ],
      "payable": true,
      "stateMutability": "payable",
      "type": "function"
    },
    {
      "constant": false,
      "inputs": [
        {
          "name": "_outcome",
          "type": "uint256"
        }
      ],
      "name": "makeDecision",
      "outputs": [],
      "payable": false,
      "stateMutability": "nonpayable",
      "type": "function"
    },
    {
      "constant": false,
      "inputs": [
        {
          "name": "withdrawAmount",
          "type": "uint256"
        }
      ],
      "name": "withdraw",
      "outputs": [
        {
          "name": "",
          "type": "uint256"
        }
      ],
      "payable": false,
      "stateMutability": "nonpayable",
      "type": "function"
    },
    {
      "constant": true,
      "inputs": [
        {
          "name": "outcome",
          "type": "uint256"
        }
      ],
      "name": "checkOutcomes",
      "outputs": [
        {
          "name": "",
          "type": "uint256"
        }
      ],
      "payable": false,
      "stateMutability": "view",
      "type": "function"
    },
    {
      "constant": true,
      "inputs": [],
      "name": "checkWinnings",
      "outputs": [
        {
          "name": "",
          "type": "uint256"
        }
      ],
      "payable": false,
      "stateMutability": "view",
      "type": "function"
    },
    {
      "constant": false,
      "inputs": [],
      "name": "contractReset",
      "outputs": [],
      "payable": false,
      "stateMutability": "nonpayable",
      "type": "function"
    }
  ],
  "bytecode": "0x6060604052341561000f57600080fd5b604051610e45380380610e45833981016040528080518201919050506000336000806101000a81548173ffffffffffffffffffffffffffffffffffffffff021916908373ffffffffffffffffffffffffffffffffffffffff160217905550600090505b81518110156100b757818181518110151561008957fe5b9060200190602002015160066000838152602001908152602001600020819055508080600101915050610072565b5050610d7d806100c86000396000f3006060604052600436106100ba576000357c0100000000000000000000000000000000000000000000000000000000900463ffffffff168063113023ca146100bf5780631def0573146101145780632e1a7d4d146101695780635ee715d6146101a05780636d0b502f146101c9578063718cc769146102005780637dc0d1d01461023057806380c1367e146102855780638da5cb5b146102a8578063a7a5ce88146102fd578063d0aa7e2514610312578063eed2a1471461038b575b600080fd5b34156100ca57600080fd5b6100d26103c2565b604051808273ffffffffffffffffffffffffffffffffffffffff1673ffffffffffffffffffffffffffffffffffffffff16815260200191505060405180910390f35b341561011f57600080fd5b6101276103e8565b604051808273ffffffffffffffffffffffffffffffffffffffff1673ffffffffffffffffffffffffffffffffffffffff16815260200191505060405180910390f35b341561017457600080fd5b61018a600480803590602001909190505061040e565b6040518082815260200191505060405180910390f35b34156101ab57600080fd5b6101b36104fc565b6040518082815260200191505060405180910390f35b34156101d457600080fd5b6101ea6004808035906020019091905050610548565b6040518082815260200191505060405180910390f35b6102166004808035906020019091905050610565565b604051808215151515815260200191505060405180910390f35b341561023b57600080fd5b610243610617565b604051808273ffffffffffffffffffffffffffffffffffffffff1673ffffffffffffffffffffffffffffffffffffffff16815260200191505060405180910390f35b341561029057600080fd5b6102a6600480803590602001909190505061063d565b005b34156102b357600080fd5b6102bb610c34565b604051808273ffffffffffffffffffffffffffffffffffffffff1673ffffffffffffffffffffffffffffffffffffffff16815260200191505060405180910390f35b341561030857600080fd5b610310610c59565b005b341561031d57600080fd5b610349600480803573ffffffffffffffffffffffffffffffffffffffff16906020019091905050610cca565b604051808273ffffffffffffffffffffffffffffffffffffffff1673ffffffffffffffffffffffffffffffffffffffff16815260200191505060405180910390f35b341561039657600080fd5b6103ac6004808035906020019091905050610d15565b6040518082815260200191505060405180910390f35b600260009054906101000a900473ffffffffffffffffffffffffffffffffffffffff1681565b600160009054906101000a900473ffffffffffffffffffffffffffffffffffffffff1681565b60008033905082600560008373ffffffffffffffffffffffffffffffffffffffff1673ffffffffffffffffffffffffffffffffffffffff168152602001908152602001600020541015156104f15782600560008373ffffffffffffffffffffffffffffffffffffffff1673ffffffffffffffffffffffffffffffffffffffff168152602001908152602001600020600082825403925050819055508073ffffffffffffffffffffffffffffffffffffffff166108fc849081150290604051600060405180830381858888f1935050505015156104e957600080fd5b8291506104f6565b600091505b50919050565b600080339050600560008273ffffffffffffffffffffffffffffffffffffffff1673ffffffffffffffffffffffffffffffffffffffff1681526020019081526020016000205491505090565b600060066000838152602001908152602001600020549050919050565b600061056f610d2d565b60008382600001818152505034826020018181525050600182604001901515908115158152505033905081600460008373ffffffffffffffffffffffffffffffffffffffff1673ffffffffffffffffffffffffffffffffffffffff168152602001908152602001600020600082015181600001556020820151816001015560408201518160020160006101000a81548160ff0219169083151502179055509050505050919050565b600360009054906101000a900473ffffffffffffffffffffffffffffffffffffffff1681565b60008160046000600260009054906101000a900473ffffffffffffffffffffffffffffffffffffffff1673ffffffffffffffffffffffffffffffffffffffff1673ffffffffffffffffffffffffffffffffffffffff1681526020019081526020016000206001015460046000600160009054906101000a900473ffffffffffffffffffffffffffffffffffffffff1673ffffffffffffffffffffffffffffffffffffffff1673ffffffffffffffffffffffffffffffffffffffff168152602001908152602001600020600101540191508260046000600160009054906101000a900473ffffffffffffffffffffffffffffffffffffffff1673ffffffffffffffffffffffffffffffffffffffff1673ffffffffffffffffffffffffffffffffffffffff168152602001908152602001600020600001541480156107e357508260046000600260009054906101000a900473ffffffffffffffffffffffffffffffffffffffff1673ffffffffffffffffffffffffffffffffffffffff1673ffffffffffffffffffffffffffffffffffffffff16815260200190815260200160002060000154145b1561097957600160009054906101000a900473ffffffffffffffffffffffffffffffffffffffff1673ffffffffffffffffffffffffffffffffffffffff166108fc60046000600160009054906101000a900473ffffffffffffffffffffffffffffffffffffffff1673ffffffffffffffffffffffffffffffffffffffff1673ffffffffffffffffffffffffffffffffffffffff168152602001908152602001600020600101549081150290604051600060405180830381858888f1935050505015156108ae57600080fd5b600260009054906101000a900473ffffffffffffffffffffffffffffffffffffffff1673ffffffffffffffffffffffffffffffffffffffff166108fc60046000600260009054906101000a900473ffffffffffffffffffffffffffffffffffffffff1673ffffffffffffffffffffffffffffffffffffffff1673ffffffffffffffffffffffffffffffffffffffff168152602001908152602001600020600101549081150290604051600060405180830381858888f19350505050151561097457600080fd5b610bab565b8260046000600160009054906101000a900473ffffffffffffffffffffffffffffffffffffffff1673ffffffffffffffffffffffffffffffffffffffff1673ffffffffffffffffffffffffffffffffffffffff168152602001908152602001600020600001541415610a59578160056000600160009054906101000a900473ffffffffffffffffffffffffffffffffffffffff1673ffffffffffffffffffffffffffffffffffffffff1673ffffffffffffffffffffffffffffffffffffffff16815260200190815260200160002060008282540192505081905550610baa565b8260046000600260009054906101000a900473ffffffffffffffffffffffffffffffffffffffff1673ffffffffffffffffffffffffffffffffffffffff1673ffffffffffffffffffffffffffffffffffffffff168152602001908152602001600020600001541415610b39578160056000600260009054906101000a900473ffffffffffffffffffffffffffffffffffffffff1673ffffffffffffffffffffffffffffffffffffffff1673ffffffffffffffffffffffffffffffffffffffff16815260200190815260200160002060008282540192505081905550610ba9565b8160056000600360009054906101000a900473ffffffffffffffffffffffffffffffffffffffff1673ffffffffffffffffffffffffffffffffffffffff1673ffffffffffffffffffffffffffffffffffffffff168152602001908152602001600020600082825401925050819055505b5b5b6000600160006101000a81548173ffffffffffffffffffffffffffffffffffffffff021916908373ffffffffffffffffffffffffffffffffffffffff1602179055506000600260006101000a81548173ffffffffffffffffffffffffffffffffffffffff021916908373ffffffffffffffffffffffffffffffffffffffff160217905550505050565b6000809054906101000a900473ffffffffffffffffffffffffffffffffffffffff1681565b600160006101000a81549073ffffffffffffffffffffffffffffffffffffffff0219169055600260006101000a81549073ffffffffffffffffffffffffffffffffffffffff0219169055600360006101000a81549073ffffffffffffffffffffffffffffffffffffffff0219169055565b600081600360006101000a81548173ffffffffffffffffffffffffffffffffffffffff021916908373ffffffffffffffffffffffffffffffffffffffff160217905550819050919050565b60066020528060005260406000206000915090505481565b606060405190810160405280600081526020016000815260200160001515815250905600a165627a7a723058204969465e45d7c73e0fe7b018d77691056e8cd5e469dbaf4bb252b3a6f597ff4a0029",
  "source": "pragma solidity 0.4.19;\n\n\ncontract Betting {\n    /* Constructor function, where owner and outcomes are set */\n    function Betting(uint[] _outcomes) public {\n        owner = msg.sender;\n\n        for (uint i = 0; i < _outcomes.length; i++) {\n            outcomes[i] = _outcomes[i];\n        }\n    }\n\n    /* Fallback function */\n    function() public payable {\n        revert();\n    }\n\n    /* Standard state variables */\n    address public owner;\n    address public gamblerA;\n    address public gamblerB;\n    address public oracle;\n\n    /* Structs are custom data structures with self-defined parameters */\n    struct Bet {\n        uint outcome;\n        uint amount;\n        bool initialized;\n    }\n\n    /* Keep track of every gambler's bet */\n    mapping (address => Bet) bets;\n    /* Keep track of every player's winnings (if any) */\n    mapping (address => uint) winnings;\n    /* Keep track of all outcomes (maps index to numerical outcome) */\n    mapping (uint => uint) public outcomes;\n\n    /* Add any events you think are necessary */\n    event BetMade(address gambler);\n    event BetClosed();\n\n    /* Uh Oh, what are these? */\n    modifier ownerOnly() {_;}\n    modifier oracleOnly() {_;}\n    modifier outcomeExists(uint outcome) {\n        \n        _;\n    }\n\n    /* Owner chooses their trusted Oracle */\n    function chooseOracle(address _oracle) public ownerOnly() returns (address) {\n        oracle = _oracle;\n        return _oracle;\n    }\n\n    /* Gamblers place their bets, preferably after calling checkOutcomes */\n    function makeBet(uint _outcome) public payable returns (bool) {\n        Bet memory bet;\n        bet.outcome = _outcome;\n        bet.amount = msg.value;\n        bet.initialized = true;\n\n        address addr = msg.sender;\n        bets[addr] = bet;\n    }\n\n    /* The oracle chooses which outcome wins */\n    function makeDecision(uint _outcome) public oracleOnly() outcomeExists(_outcome) {\n        uint pot = bets[gamblerA].amount + bets[gamblerB].amount;\n\n        if (bets[gamblerA].outcome == _outcome && bets[gamblerB].outcome == _outcome) {\n            gamblerA.transfer(bets[gamblerA].amount);\n            gamblerB.transfer(bets[gamblerB].amount);\n        } else if (bets[gamblerA].outcome == _outcome) {\n            winnings[gamblerA] += pot;\n        } else if (bets[gamblerB].outcome == _outcome) {\n            winnings[gamblerB] += pot;\n        } else {\n            winnings[oracle] += pot;\n        }\n\n        gamblerA = address(0);\n        gamblerB = address(0);\n    }\n\n    /* Allow anyone to withdraw their winnings safely (if they have enough) */\n    function withdraw(uint withdrawAmount) public returns (uint) {\n        address addr = msg.sender;\n\n        if (winnings[addr] >= withdrawAmount) {\n            winnings[addr] -= withdrawAmount;\n            addr.transfer(withdrawAmount);\n            return withdrawAmount;\n        }\n\n        return 0;\n    }\n    \n    /* Allow anyone to check the outcomes they can bet on */\n    function checkOutcomes(uint outcome) public view returns (uint) {\n        return outcomes[outcome];\n    }\n    \n    /* Allow anyone to check if they won any bets */\n    function checkWinnings() public view returns(uint) {\n        address addr = msg.sender;\n        return winnings[addr];\n    }\n\n    /* Call delete() to reset certain state variables. Which ones? That's up to you to decide */\n    function contractReset() public ownerOnly() {\n        delete gamblerA;\n        delete gamblerB;\n        delete oracle;\n    }\n}\n",
  "sourcePath": "/Users/daltondo/Desktop/cs_courses/blockchain_developers/lab02/Betting Contract/contracts/betting.sol",
  "compiler": {
    "name": "solc",
    "version": "0.4.19+commit.c4cbbb05.Emscripten.clang"
  },
  "schemaVersion": "1.0.1",
  "updatedAt": "2018-02-22T23:25:14.492Z"
}