{
  "contractName": "Concatenate",
  "abi": [
    {
      "constant": false,
      "inputs": [
        {
          "name": "x",
          "type": "string"
        },
        {
          "name": "y",
          "type": "string"
        }
      ],
      "name": "concatWithoutImport",
      "outputs": [
        {
          "name": "",
          "type": "string"
        }
      ],
      "payable": false,
      "stateMutability": "nonpayable",
      "type": "function"
    },
    {
      "constant": false,
      "inputs": [
        {
          "name": "s",
          "type": "string"
        },
        {
          "name": "t",
          "type": "string"
        }
      ],
      "name": "concatWithImport",
      "outputs": [
        {
          "name": "",
          "type": "string"
        }
      ],
      "payable": false,
      "stateMutability": "nonpayable",
      "type": "function"
    }
  ],
  "bytecode": "0x6060604052341561000f57600080fd5b6104bc8061001e6000396000f30060606040526004361061004c576000357c0100000000000000000000000000000000000000000000000000000000900463ffffffff1680631eff86461461005157806334d1460b1461016a575b600080fd5b341561005c57600080fd5b6100ef600480803590602001908201803590602001908080601f0160208091040260200160405190810160405280939291908181526020018383808284378201915050505050509190803590602001908201803590602001908080601f01602080910402602001604051908101604052809392919081815260200183838082843782019150505050505091905050610283565b6040518080602001828103825283818151815260200191508051906020019080838360005b8381101561012f578082015181840152602081019050610114565b50505050905090810190601f16801561015c5780820380516001836020036101000a031916815260200191505b509250505060405180910390f35b341561017557600080fd5b610208600480803590602001908201803590602001908080601f0160208091040260200160405190810160405280939291908181526020018383808284378201915050505050509190803590602001908201803590602001908080601f01602080910402602001604051908101604052809392919081815260200183838082843782019150505050505091905050610291565b6040518080602001828103825283818151815260200191508051906020019080838360005b8381101561024857808201518184015260208101905061022d565b50505050905090810190601f1680156102755780820380516001836020036101000a031916815260200191505b509250505060405180910390f35b61028b610468565b92915050565b610299610468565b6102a161047c565b6102a961047c565b6102b161047c565b600080600088955087945084518651016040518059106102ce5750595b9080825280601f01601f1916602001820160405250935060009250600091505b85518210156103a157858281518110151561030557fe5b9060200101517f010000000000000000000000000000000000000000000000000000000000000090047f010000000000000000000000000000000000000000000000000000000000000002848481518110151561035e57fe5b9060200101907effffffffffffffffffffffffffffffffffffffffffffffffffffffffffffff1916908160001a90535060018301925081806001019250506102ee565b600090505b84518110156104595784818151811015156103bd57fe5b9060200101517f010000000000000000000000000000000000000000000000000000000000000090047f010000000000000000000000000000000000000000000000000000000000000002848481518110151561041657fe5b9060200101907effffffffffffffffffffffffffffffffffffffffffffffffffffffffffffff1916908160001a90535060018301925080806001019150506103a6565b83965050505050505092915050565b602060405190810160405280600081525090565b6020604051908101604052806000815250905600a165627a7a723058209360fcbb538e8661a1b4f591ccae9e2d292c6d4ae49c42b93291a874ad856e860029",
  "source": "pragma solidity 0.4.19;\n\n\ncontract Concatenate {\n    function concatWithoutImport(string x, string y) public returns (string) {\n        bytes memory _x = bytes(x);\n        bytes memory _y = bytes(y);\n        bytes memory fused = new bytes(_x.length + _y.length);\n        uint k = 0;\n        \n        for (uint i = 0; i < _x.length; i++) {\n            fused[k] = _x[i];\n            k += 1;\n        }\n        \n        for (uint j = 0; j < _y.length; j++) {\n            fused[k] = _y[j];\n            k += 1;\n        }\n        \n        return string(fused);\n    }\n\n    /* BONUS */\n    function concatWithImport(string s, string t) public returns (string) {\n    }\n}\n",
  "sourcePath": "/Users/daltondo/Desktop/cs_courses/blockchain_developers/lab02/Intro to Solidity/contracts/concatenate.sol",
  "compiler": {
    "name": "solc",
    "version": "0.4.19+commit.c4cbbb05.Emscripten.clang"
  },
  "schemaVersion": "1.0.1",
  "updatedAt": "2018-02-22T11:18:20.209Z"
}