{
  "contractName": "Fibonacci",
  "abi": [
    {
      "constant": true,
      "inputs": [
        {
          "name": "n",
          "type": "uint256"
        }
      ],
      "name": "fibRecur",
      "outputs": [
        {
          "name": "",
          "type": "uint256"
        }
      ],
      "payable": false,
      "stateMutability": "pure",
      "type": "function"
    },
    {
      "constant": false,
      "inputs": [
        {
          "name": "n",
          "type": "uint256"
        }
      ],
      "name": "fibIter",
      "outputs": [
        {
          "name": "",
          "type": "uint256"
        }
      ],
      "payable": false,
      "stateMutability": "nonpayable",
      "type": "function"
    }
  ],
  "bytecode": "0x6060604052341561000f57600080fd5b6101258061001e6000396000f3006060604052600436106049576000357c0100000000000000000000000000000000000000000000000000000000900463ffffffff168063c840476e14604e578063dfe5adc1146082575b600080fd5b3415605857600080fd5b606c600480803590602001909190505060b6565b6040518082815260200191505060405180910390f35b3415608c57600080fd5b60a0600480803590602001909190505060bd565b6040518082815260200191505060405180910390f35b6000919050565b600080600080600080935060019250600091505b8582101560ed57829050838301925080935060018201915060d1565b829450505050509190505600a165627a7a72305820c99b88f226201e059769cc7d9eddc83e58787487fbfc6d724e38de04895450220029",
  "source": "pragma solidity 0.4.19;\n\n\ncontract Fibonacci {\n    /* Carry out calculations to find the nth Fibonacci number */\n    function fibRecur(uint n) public pure returns (uint) {\n    }\n\n    /* Carry out calculations to find the nth Fibonacci number */\n    function fibIter(uint n) public returns (uint) {\n        uint prev = 0;\n        uint curr = 1;\n        uint i = 0;\n        \n        while (i < n) {\n            uint temp = curr;\n            curr = curr + prev;\n            prev = temp;\n            i += 1;\n        }\n        \n        return curr;\n    }\n}\n",
  "sourcePath": "/Users/daltondo/Desktop/cs_courses/blockchain_developers/lab02/Intro to Solidity/contracts/fibonacci.sol",
  "compiler": {
    "name": "solc",
    "version": "0.4.19+commit.c4cbbb05.Emscripten.clang"
  },
  "schemaVersion": "1.0.1",
  "updatedAt": "2018-02-22T11:18:20.205Z"
}