{
  "contractName": "XOR",
  "abi": [
    {
      "constant": true,
      "inputs": [
        {
          "name": "x",
          "type": "string"
        },
        {
          "name": "y",
          "type": "string"
        }
      ],
      "name": "xor",
      "outputs": [
        {
          "name": "",
          "type": "string"
        }
      ],
      "payable": false,
      "stateMutability": "pure",
      "type": "function"
    }
  ],
  "bytecode": "0x6060604052341561000f57600080fd5b6103e88061001e6000396000f300606060405260043610610041576000357c0100000000000000000000000000000000000000000000000000000000900463ffffffff168063573d76e714610046575b600080fd5b341561005157600080fd5b6100e4600480803590602001908201803590602001908080601f0160208091040260200160405190810160405280939291908181526020018383808284378201915050505050509190803590602001908201803590602001908080601f0160208091040260200160405190810160405280939291908181526020018383808284378201915050505050509190505061015f565b6040518080602001828103825283818151815260200191508051906020019080838360005b83811015610124578082015181840152602081019050610109565b50505050905090810190601f1680156101515780820380516001836020036101000a031916815260200191505b509250505060405180910390f35b610167610394565b61016f6103a8565b6101776103a8565b61017f6103a8565b600086935085925083516040518059106101965750595b9080825280601f01601f19166020018201604052509150600090505b81518110156103875782818151811015156101c957fe5b9060200101517f010000000000000000000000000000000000000000000000000000000000000090047f0100000000000000000000000000000000000000000000000000000000000000027effffffffffffffffffffffffffffffffffffffffffffffffffffffffffffff1916848281518110151561024457fe5b9060200101517f010000000000000000000000000000000000000000000000000000000000000090047f0100000000000000000000000000000000000000000000000000000000000000027effffffffffffffffffffffffffffffffffffffffffffffffffffffffffffff191614151561031c577f310000000000000000000000000000000000000000000000000000000000000082828151811015156102e757fe5b9060200101907effffffffffffffffffffffffffffffffffffffffffffffffffffffffffffff1916908160001a90535061037c565b7f3000000000000000000000000000000000000000000000000000000000000000828281518110151561034b57fe5b9060200101907effffffffffffffffffffffffffffffffffffffffffffffffffffffffffffff1916908160001a9053505b6001810190506101b2565b8194505050505092915050565b602060405190810160405280600081525090565b6020604051908101604052806000815250905600a165627a7a72305820a37e3661387b0105fc73245759af6770c33f91c156a3f1f9e9f5099c4c920df30029",
  "source": "pragma solidity 0.4.19;\n\n\ncontract XOR {\n    function xor(string x, string y) public pure returns (string) {\n        bytes memory _x = bytes(x);\n        bytes memory _y = bytes(y);\n        bytes memory _xor = new bytes(_x.length);\n        uint i = 0;\n\n        while (i < _xor.length) {\n            if (_x[i] != _y[i]) {\n                _xor[i] = \"1\";\n            } else {\n                _xor[i] = \"0\";\n            }\n            i += 1;\n        }\n        \n        return string(_xor);\n    }\n}\n",
  "sourcePath": "/Users/daltondo/Desktop/cs_courses/blockchain_developers/lab02/Intro to Solidity/contracts/xor.sol",
  "compiler": {
    "name": "solc",
    "version": "0.4.19+commit.c4cbbb05.Emscripten.clang"
  },
  "schemaVersion": "1.0.1",
  "updatedAt": "2018-02-22T11:18:20.206Z"
}